:100000000C9446000C9465000C9465000C946500FB
:100010000C9465000C9465000C9465000C946500CC
:100020000C9465000C9465000C9465000C946500BC
:100030000C9465000C9427010C9465000C946500E9
:100040000C9465000C9465000C9465000C9465009C
:100050000C9465000C9465000C9465000C9465008C
:100060000C9465000C9465000C9465000C9465007C
:100070000C9465000C9465000C9465000C9465006C
:100080000C9465000C9465000C94650011241FBE4F
:10009000CFEFD0E4DEBFCDBF11E0A0E0B1E0E4EFF0
:1000A000FCE100E00BBF02C007900D92AC35B10738
:1000B000D9F721E0ACE5B1E001C01D92A13AB20749
:1000C000E1F70E94910D0C94780E0C940000CF93F0
:1000D000C82F8A3051F09091C00095FFFCCFC0939B
:1000E000C60090E080E0CF9108958DE00E94670007
:1000F000F2CF482F592F30E020E002C02F5F3F4F52
:10010000241735074CF490E080E0873063E09607D1
:10011000ACF700000196F9CF08959BB19F7B9BB986
:1001200088B98BB180688BB900008BB18F778BB9A0
:1001300082E090E00E947900089581E00E948D00A5
:100140000895813120F481580E948D0008958155D1
:100150000E948D00089584E690E00E94790088E373
:100160000E948D0086E00E948D008FE00E948D002D
:1001700081E00E948D008AE090E00E94790008955D
:100180009BB190649BB988B98BB180688BB9000032
:100190008BB18F778BB981E090E00E947900089550
:1001A0000F931F93CF93DF93182FC62FD72F0E9443
:1001B0009D008881882351F001E0010F812F0E946A
:1001C000A10089910E94C000102FF3CFDF91CF9141
:1001D0001F910F9108956093520170935301809382
:1001E00054019093550160935C0170935D0180937D
:1001F0005E0190935F0108958BE0809381008DE70D
:1002000090E0909389008093880082E080936F0053
:1002100010928500109284008091520190915301B8
:10022000A0915401B091550180935C0190935D01C0
:10023000A0935E01B0935F018FB780688FBF089570
:1002400010928100089581E08093600108951F92CB
:100250000F920FB60F9211240BB60F922F933F936C
:100260004F935F936F937F938F939F93AF93BF93BE
:10027000EF93FF9380915C0190915D01A0915E01ED
:10028000B0915F010197A109B10980935C0190933E
:100290005D01A0935E01B0935F01892B8A2B8B2BAC
:1002A00099F0FF91EF91BF91AF919F918F917F91C5
:1002B0006F915F914F913F912F910F900BBE0F90D7
:1002C0000FBE0F901F9018950E942301809152013C
:1002D00090915301A0915401B091550180935C011C
:1002E00090935D01A0935E01B0935F01DACF442348
:1002F00049F021E030E002C0220F331F6A95E2F797
:10030000822B089521E030E002C0220F331F6A954E
:10031000E2F720958223089521E030E002C0220F09
:10032000331F6A95E2F78223089540E064E08FEF7F
:100330000E94770185B9000083B160E080950E943A
:100340008C0181117FC083B161E080950E948C0196
:1003500081117AC083B162E080950E948C01811185
:1003600075C083B163E080950E948C01811170C0DB
:1003700040E065E08FEF0E94770185B9000083B10E
:1003800060E080950E948C01811164C083B161E0BE
:1003900080950E948C0181115FC083B162E08095DD
:1003A0000E948C0181115AC083B163E080950E9444
:1003B0008C01811155C040E066E08FEF0E9477010B
:1003C00085B9000083B160E080950E948C018111A5
:1003D00049C083B161E080950E948C01811144C0C5
:1003E00083B162E080950E948C0181113FC083B18E
:1003F00063E080950E948C0181113AC040E067E083
:100400008FEF0E94770185B9000083B160E080958D
:100410000E948C0181112EC083B161E080950E9401
:100420008C01811129C083B162E080950E948C010A
:10043000811124C083B163E080950E948C018111F9
:100440001FC0089581E3089584E3089587E3089524
:100450008AE2089582E3089585E3089588E3089584
:1004600080E3089583E3089586E3089589E308957A
:1004700083E2089581E4089582E4089583E4089571
:1004800084E4DFCF0F931F93CF93DF9300D000D08E
:1004900000D0CDB7DEB729833A834B835C830981D3
:1004A0001A812B812E833C813D8329813A814B81A6
:1004B0005C810E94560E69837A838B839C83602FB4
:1004C000712F8E819D8129813A814B815C81232B03
:1004D000242B252B21F726960FB6F894DEBF0FBEEE
:1004E000CDBFDF91CF911F910F910895ECE7F0E020
:1004F000808180648083EAE7F0E080818768808380
:1005000008958770ECE7F0E09081987F892B8083D5
:10051000EAE7F0E080818064808380917A0086FD44
:10052000FCCF80917800909179000895FC01EC5FF8
:10053000FE4F808121E030E002C0220F331F6A9518
:10054000E2F72095282320830895FC01EC5FFE4FFD
:10055000808121E030E002C0220F331F6A95E2F76C
:10056000822B808308958C5F9E4FFC01208130E0B8
:1005700081E090E002C0880F991F6A95E2F7282376
:10058000392381E0232B09F480E00895482F592F67
:10059000262F372F2430310539F0B9016F5F7F4F97
:1005A000CA010E94A502089570E060E0CA010197A7
:1005B0000E94A502089504970E94A502089504963A
:1005C0000E94A5020895482F592F262F372F211555
:1005D000310539F464E070E0CA0101960E94A50279
:1005E0000895B90161507109CA010E94A5020895D8
:1005F000E82FF92F62817381808191810E94A50289
:100600000895E82FF92F62817381808191810E9482
:1006100096020895E82FF92F628173816430710585
:1006200051F06F5F7F4F808191810E94B3028111F1
:100630000FC081E008958081918170E060E00197B2
:100640000E94B302811102C081E0089580E0089504
:1006500080E00895E82FF92F808191816281738174
:1006600004970E94B302811102C081E0089580E0E6
:100670000895E82FF92F808191816281738104961A
:100680000E94B302811102C081E0089580E00895C4
:10069000CF93DF93C82FD92F8B819C810E940A03AF
:1006A0008823A1F08D819E810E940A03882391F006
:1006B0008F8198850E940A03882371F089859A8525
:1006C0000E940A03882351F081E001C080E0DF919D
:1006D000CF91089580E0FBCF80E0F9CF80E0F7CFA5
:1006E000CF93DF93C82FD92F8B819C810E942A033F
:1006F0008823A1F08D819E810E942A03882391F096
:100700008F8198850E942A03882371F089859A85B4
:100710000E942A03882351F081E001C080E0DF912C
:10072000CF91089580E0FBCF80E0F9CF80E0F7CF54
:10073000CF93DF93C82FD92F8B819C810E943903DF
:100740008823A1F08D819E810E943903882391F036
:100750008F8198850E943903882371F089859A8555
:100760000E943903882351F081E001C080E0DF91CD
:10077000CF91089580E0FBCF80E0F9CF80E0F7CF04
:10078000CF93DF93C82FD92F6A817B81888199818C
:100790000E94C6028A819B818430910531F00196C6
:1007A0009B838A83DF91CF910895888199810197F6
:1007B000998388831B821A82F5CFCF93DF93C82F4A
:1007C000D92F6A817B81888199810E94E3028A8185
:1007D0009B81009761F48881998101969983888330
:1007E00084E090E09B838A83DF91CF910895019705
:1007F0009B838A83F9CFCF93DF93C82FD92F6A8148
:100800007B81888199810E94DB028881998104978C
:1008100099838883DF91CF910895CF93DF93C82F79
:10082000D92F6A817B81888199810E94DF0288812A
:100830009981049699838883DF91CF910895EF92EF
:10084000FF920F931F93CF93DF93C82FD92F062FBB
:10085000172F7A01EE0CFF1CEE0CFF1C288139814A
:100860002E0D3F1DC9010497C79708F092C0C9011A
:1008700083709927892B31F48A819B81801B910B8E
:10088000049764F58A819B81801B910B85309105CB
:1008900094F5A9014370507833230CF447C04330DA
:1008A000510509F44AC099230CF458C08AE10E940A
:1008B000A10087E60E94C0008A81801B805D0E94A3
:1008C000C0006A817B8188819981601B710B8E0DCC
:1008D0009F1D0E94B30291E089275CC08AE10E94BB
:1008E000A10084E60E94C0008A81801B805D0E9476
:1008F000C00080E04FC08AE10E94A10085E60E940E
:10090000C0008A81801B805D0E94C0006A817B815B
:10091000601B710B888199818E0D9F1D6550710937
:1009200001970E94B30291E0892734C041505109D8
:100930004C6F5F6F4F5F5F4FB2CF181619060CF404
:10094000B2CF8AE10E94A10085E70E94C0008A819F
:10095000801B805D0E94C00080E01CC08AE10E9474
:10096000A10086E70E94C0008A81801B805D0E94F2
:10097000C0006A817B81601B710B888199818E0D1B
:100980009F1D6B5F7F4F01960E94B30291E0892704
:1009900001C080E0DF91CF911F910F91FF90EF9008
:1009A0000895CF92DF92EF92FF920F931F93CF9310
:1009B000DF93C82FD92FE62EF72E042F152FFF20F7
:1009C00034F01E141F0494F5D12CC12C27C0D12C57
:1009D000C12C0EC0C816D9064CF58C2F9D2F0E9435
:1009E00001038C2F9D2F0E94C0038FEFC81AD80AD5
:1009F000C701FF207CF7882799278E199F09EACF26
:100A0000C816D9069CF48C2F9D2F0E9401038C2FB1
:100A10009D2F0E94DD038FEFC81AD80AC701FF205F
:100A20007CF7882799278E199F09EACF112334F084
:100A30001016110694F5F12CE12C27C0F12CE12CB5
:100A40000EC0E816F9064CF58C2F9D2F0E9401036D
:100A50008C2F9D2F0E94FB038FEFE81AF80AC80124
:100A600011237CF788279927801B910BEACFE81682
:100A7000F9069CF48C2F9D2F0E9401038C2F9D2F33
:100A80000E940D048FEFE81AF80AC80111237CF7C1
:100A900088279927801B910BEACFDF91CF911F9177
:100AA0000F91FF90EF90DF90CF900895CF93DF9359
:100AB000C82FD92F89859A850E94F8028F81988541
:100AC0000E94F8028D819E810E94F8028B819C8198
:100AD0000E94F802DF91CF910895CF93DF93C82F42
:100AE000D92F89859A850E9401038F8198850E945C
:100AF00001038D819E810E9401038B819C810E9454
:100B00000103DF91CF910895CF93DF93C82FD92FA1
:100B1000CE010E946D05CE010E944803882399F002
:100B200089859A850E94C0038F8198850E94C003A1
:100B30008D819E810E94C0038B819C810E94C00395
:100B4000DF91CF910895CE010E945605F9CFCF9342
:100B5000DF93C82FD92FCE010E946D05CE010E94D0
:100B60007003882399F089859A850E94FB038F8101
:100B700098850E94FB038D819E810E94FB038B81DF
:100B80009C810E94FB03DF91CF910895CE010E94CA
:100B90005605F9CFCF93DF93C82FD92FCE010E94EE
:100BA0006D05CE010E949803882399F089859A8566
:100BB0000E940D048F8198850E940D048D819E8175
:100BC0000E940D048B819C810E940D04DF91CF91C6
:100BD0000895CE010E945605F9CF0F931F93CF932E
:100BE000DF93282F392FE2E9F1E06EE871E074839A
:100BF00063834AE851E056834583C6E8D1E0D08755
:100C0000C783A2E8B1E0B287A187128211820FE107
:100C100010E0FB011183008381E090E093838283E5
:100C20006BE170E0FA01718360839383828343E216
:100C300050E0598348839B838A8311961C930E93BB
:100C400082E090E013969C938E93129723303105A7
:100C500009F445C054F521303105B9F12230310590
:100C600071F48FE480939201E6E8F1E08BE190E08B
:100C70009183808382E090E0938382830BC0232B57
:100C8000E1F58AE48093920183E290E090938301FE
:100C90008093820182E991E00E94560582E991E009
:100CA000DF91CF911F910F9108952430310509F103
:100CB0002530310511F58AE58093920182E090E0BC
:100CC0009093890180938801E5CF8CE48093920111
:100CD0008BE190E09093830180938201DBCF83E5E9
:100CE0008093920182E090E090938D0180938C013B
:100CF000D1CF84E580939201CDCF89E48093920196
:100D0000E2E8F1E087E190E09183808381E090E088
:100D100093838283BFCFCF93DF93C82FD92FCE0188
:100D20000E946D0589819A8101969A83898389E160
:100D30000E94A1008981805D0E94C0008881833566
:100D400009F48FC208F059C08A3409F489C08C3480
:100D500021F529813A81C9018370907833230CF4FD
:100D600090C18230910509F410C20CF08FC1009738
:100D700009F49FC1019709F0CEC441E050E061E061
:100D800070E08D819E810E941F048111CFC18981F5
:100D90009A8101979A838983BEC4893409F0BBC4C0
:100DA00029813A81C9018370907833230CF4D2C42D
:100DB0008230910509F407C50CF0D1C4009709F4FD
:100DC000E9C4019709F0A7C441E050E061E070E098
:100DD0008D819E810E94D1044FEF5FEF6FEF7FEF17
:100DE0008F8198850E94D10442E050E062E070E07B
:100DF00089859A850E94D1048EC4843509F442C342
:100E00008A3509F088C429813A81C90183709078B4
:100E100033230CF448C48230910509F482C40CF0E9
:100E200047C4009709F45FC4019709F074C441E016
:100E300050E061E070E08D819E810E94D1044EEF10
:100E40005FEF70E060E08F8198850E94D1044FEFE2
:100E50005FEF61E070E089859A850E94D1045BC4F0
:100E600029813A81C901837090783323D4F082308C
:100E7000910509F49AC0D4F4009759F1019709F04B
:100E80004AC441E050E061E070E08D819E810E94A3
:100E90001F0481115BC089819A8101979A8389839C
:100EA0003AC401978C6F9F6F0196E1CF039709F0C9
:100EB00032C44FEF5FEF6FEF7FEF8D819E810E9415
:100EC0001F048111AFC089819A8101979A83898318
:100ED00022C44FEF5FEF61E070E08D819E810E9440
:100EE0001F04811106C089819A8101979A838983A1
:100EF00012C441E050E06FEF7FEF8F8198850E9430
:100F00001F04882381F350E040E06EEF7FEF898576
:100F10009A850E941F04882331F34FEF5FEF61E051
:100F200070E08D819E810E94D10441E050E06FEF1E
:100F30007FEF8F8198850E94D10450E040E06EEFF2
:100F40007FEF89859A850E94D104E5C34FEF5FEF5B
:100F50006FEF7FEF8F8198850E941F04882309F42B
:100F60009ACF4EEF5FEF70E060E089859A850E942E
:100F70001F04882309F48FCF41E050E061E070E066
:100F80008D819E810E94D1044FEF5FEF6FEF7FEF65
:100F90008F8198850E94D1044EEF5FEF70E060E092
:100FA00089859A850E94D104B6C341E050E06FEF75
:100FB0007FEF8D819E810E941F04811106C089816F
:100FC0009A8101979A838983A6C34FEF5FEF61E00F
:100FD00070E08F8198850E941F04882381F350E080
:100FE00040E062E070E089859A850E941F048823B2
:100FF00031F341E050E06FEF7FEF8D819E810E94E1
:10100000D1044FEF5FEF61E070E08F8198850E941F
:10101000D10450E040E062E070E089859A850E944A
:10102000D10479C341E050E061E070E08F819885A0
:101030000E941F04882309F446CF42E050E070E08C
:1010400060E089859A850E941F04882309F43BCFBC
:101050004FEF5FEF6FEF7FEF8D819E810E94D10494
:1010600041E050E061E070E08F8198850E94D104FA
:1010700042E050E070E060E089859A850E94D104EA
:101080004AC301978C6F9F6F01966BCE039709F04F
:1010900042C34FEF5FEF6FEF7FEF8D819E810E9424
:1010A0001F048111AFC089819A8101979A83898336
:1010B00032C34FEF5FEF6FEF7FEF8D819E810E9414
:1010C0001F04811106C089819A8101979A838983BF
:1010D00022C341E050E06FEF7FEF8F8198850E943F
:1010E0001F04882381F342E050E070E060E08985CE
:1010F0009A850E941F04882331F34FEF5FEF61E070
:1011000070E08D819E810E94D10441E050E06FEF3C
:101110007FEF8F8198850E94D1044EEF5FEF70E0E2
:1011200060E089859A850E94D104F5C24FEF5FEF98
:101130006FEF7FEF8F8198850E941F04882309F449
:1011400026CE50E040E062E070E089859A850E94FA
:101150001F04882309F41BCE41E050E061E070E0F9
:101160008D819E810E94D1044FEF5FEF6FEF7FEF83
:101170008F8198850E94D10450E040E062E070E0E9
:1011800089859A850E94D104C6C241E050E06FEF84
:101190007FEF8D819E810E941F04811106C089818D
:1011A0009A8101979A838983B6C24FEF5FEF61E01E
:1011B00070E08F8198850E941F04882381F342E0AC
:1011C00050E070E060E089859A850E941F048823C2
:1011D00031F341E050E06FEF7FEF8D819E810E94FF
:1011E000D1044FEF5FEF61E070E08F8198850E943E
:1011F000D10442E050E070E060E089859A850E9469
:10120000D10489C241E050E061E070E08F819885AF
:101210000E941F04882309F446CF50E040E06EEF9F
:101220007FEF89859A850E941F04882309F43BCFAC
:101230004FEF5FEF6FEF7FEF8D819E810E94D104B2
:1012400041E050E061E070E08F8198850E94D10418
:1012500050E040E06EEF7FEF89859A850E94D104CF
:101260005AC229813A81C901837090783323D4F01E
:101270008230910509F49AC0D4F4009759F101978E
:1012800009F049C250E040E062E070E08D819E814B
:101290000E941F0481115BC089819A8101979A8302
:1012A000898339C201978C6F9F6F0196E1CF0397B5
:1012B00009F031C250E040E06EEF7FEF8D819E81FA
:1012C0000E941F048111AFC089819A8101979A837E
:1012D000898321C24EEF5FEF70E060E08D819E81D7
:1012E0000E941F04811106C089819A8101979A8307
:1012F000898311C241E050E06FEF7FEF8F819885C5
:101300000E941F04882381F34FEF5FEF6FEF7FEFA1
:1013100089859A850E941F04882331F34EEF5FEF81
:1013200070E060E08D819E810E94D10441E050E038
:101330006FEF7FEF8F8198850E94D1044FEF5FEFB1
:101340006FEF7FEF89859A850E94D104E4C14FEF4A
:101350005FEF6FEF7FEF8F8198850E941F048823D6
:1013600009F49ACF4FEF5FEF61E070E089859A85CD
:101370000E941F04882309F48FCF50E040E062E010
:1013800070E08D819E810E94D1044FEF5FEF6FEF7F
:101390007FEF8F8198850E94D1044FEF5FEF61E06E
:1013A00070E089859A850E94D104B5C142E050E081
:1013B00070E060E08D819E810E941F04811106C053
:1013C00089819A8101979A838983A5C14FEF5FEF45
:1013D00061E070E08F8198850E941F04882381F36B
:1013E00041E050E061E070E089859A850E941F0429
:1013F000882331F342E050E070E060E08D819E810F
:101400000E94D1044FEF5FEF61E070E08F8198851B
:101410000E94D10441E050E061E070E089859A8546
:101420000E94D10478C141E050E061E070E08F811A
:1014300098850E941F04882309F446CF41E050E0BC
:101440006FEF7FEF89859A850E941F04882309F436
:101450003BCF50E040E06EEF7FEF8D819E810E9498
:10146000D10441E050E061E070E08F8198850E94F6
:10147000D10441E050E06FEF7FEF89859A850E94AB
:10148000D10449C129813A81C901837090783323FD
:10149000D4F08230910509F49AC0D4F4009759F140
:1014A000019709F038C141E050E061E070E08D81C2
:1014B0009E810E941F0481115BC089819A810197DE
:1014C0009A83898328C101978C6F9F6F0196E1CF22
:1014D000039709F020C14FEF5FEF6FEF7FEF8D8132
:1014E0009E810E941F048111AFC089819A8101975A
:1014F0009A83898310C14FEF5FEF61E070E08D81C7
:101500009E810E941F04811106C089819A810197E2
:101510009A83898300C141E050E06FEF7FEF8F81B4
:1015200098850E941F04882381F34FEF5FEF6FEFD0
:101530007FEF89859A850E941F04882331F34FEF3E
:101540005FEF61E070E08D819E810E94D10441E0F7
:1015500050E06FEF7FEF8F8198850E94D1044FEFAD
:101560005FEF6FEF7FEF89859A850E94D104D3C02A
:101570004FEF5FEF6FEF7FEF8F8198850E941F0421
:10158000882309F49ACF4FEF5FEF61E070E089851F
:101590009A850E941F04882309F48FCF41E050E010
:1015A00061E070E08D819E810E94D1044FEF5FEF7A
:1015B0006FEF7FEF8F8198850E94D1044FEF5FEF2F
:1015C00061E070E089859A850E94D104A4C041E061
:1015D00050E06FEF7FEF8D819E810E941F0481118B
:1015E00006C089819A8101979A83898394C04FEFBD
:1015F0005FEF61E070E08F8198850E941F0488236F
:1016000081F341E050E061E070E089859A850E94B5
:101610001F04882331F341E050E06FEF7FEF8D81AD
:101620009E810E94D1044FEF5FEF61E070E08F81F7
:1016300098850E94D10441E050E061E070E0898526
:101640009A850E94D10467C041E050E061E070E0FB
:101650008F8198850E941F04882309F446CF41E0BA
:1016600050E06FEF7FEF89859A850E941F048823E1
:1016700009F43BCF4FEF5FEF6FEF7FEF8D819E81DE
:101680000E94D10441E050E061E070E08F819885D4
:101690000E94D10441E050E06FEF7FEF89859A8589
:1016A0000E94D10438C001978C6F9F6F0196B3CB15
:1016B000039789F54FEF5FEF6FEF7FEF8D819E818D
:1016C0000E94D10442E050E070E060E08F81988594
:1016D0000E94D10441E050E06FEF7FEF89859A8549
:1016E0000E94D10418C04FEF5FEF61E070E08D8180
:1016F0009E810E94D10450E040E06EEF7FEF8F8129
:1017000098850E94D1044FEF5FEF6FEF7FEF8985DF
:101710009A850E94D104CE010E945605DF91CF9197
:10172000089541E050E06FEF7FEF8D819E810E9430
:10173000D10450E040E062E070E08F8198850E9423
:10174000D10441E050E061E070E089859A850E9413
:10175000D104E1CF01978C6F9F6F019629CB03973E
:10176000D1F64FEF5FEF6FEF7FEF8D819E810E948B
:10177000D10441E050E061E070E08F8198850E94E3
:10178000D1044EEF5FEF6EEF7FEF89859A850E945F
:10179000D104C1CF4FEF5FEF61E070E08D819E819A
:1017A0000E94D10441E050E06FEF7FEF8F81988578
:1017B0000E94D1044EEF5FEF62E070E089859A8568
:1017C0000E94D104A8CF41E050E06FEF7FEF8D8100
:1017D0009E810E94D1044FEF5FEF61E070E08F8146
:1017E00098850E94D10442E050E06EEF7FEF89853A
:1017F0009A850E94D1048FCFCF93DF93C82FD92F22
:10180000C130D10571F0C230D10509F451C0CD2BE2
:1018100029F080E090E0DF91CF91089581E090E0A1
:10182000FACF0E9495018093A001811103C08C2FF3
:101830009D2FF1CF853359F0883381F08233A9F0A1
:101840008433D1F08133F9F082E090E0E4CF8091ED
:101850009D0190919E010E948405F6CF80919D018B
:1018600090919E010E94A705EFCF80919D019091DC
:101870009E010E94CA05E8CF80919D0190919E0132
:101880000E948B06E1CF80919D0190919E010E9464
:101890006D0580919F018F5F80939F01082E000C42
:1018A000990B0E94ED0590939E0180939D01CCCFF2
:1018B0000E9495018093A001882319F08C2F9D2F01
:1018C000AACF81E090E0A7CFCF93DF93C82FD92F85
:1018D000209709F47EC0C130D10509F07DC08CE0AD
:1018E0000E94A10080E00E9481024091000150917D
:1018F00001019A01220F331F240F351F36952795BA
:10190000369527952817390740F582E50E94C000D3
:1019100080919D0190919E010E94CA0581E00E94E4
:10192000810240910201509103019A01220F331F5D
:10193000240F351F36952795369527952817390793
:1019400040F585E50E94C00080919D0190919E0127
:101950000E948B068C2F9D2F41C080E00E94810247
:1019600020910001309101013695279536952795F4
:101970008217930750F48CE40E94C00080919D016F
:1019800090919E010E94A705C9CF80E30E94C000EC
:10199000C5CF81E00E9481022091020130910301B4
:1019A00036952795369527958217930760F484E43A
:1019B0000E94C00080919D0190919E010E9484052B
:1019C0008C2F9D2F0BC080E30E94C0008C2F9D2F79
:1019D00005C081E090E002C080E090E0DF91CF910F
:1019E00008950F931F93CF93062F172F883038F049
:1019F00080E80E948D00CF911F910F910895885F1C
:101A0000880F880F880F0E948D00C0E007C0F80182
:101A1000EC0FF11D80810E94C000CF5FC830B8F389
:101A2000E7CFCF93DF93CDB7DEB728970FB6F89403
:101A3000DEBF0FBECDBF282F862F243048F590E0A3
:101A40003DC0E22FF0E07C96492F50E0BA01660FCE
:101A5000771F660F771FE60FF71FEC5FFE4F308191
:101A6000E1E0F0E0EC0FFD1FE40FF51F30839F5F16
:101A7000983038F3BE016F5F7F4F0E94F10C2896BB
:101A80000FB6F894DEBF0FBECDBFDF91CF910895A2
:101A900090E0EECF492F50E0FA01EE0FFF1FEE0F5E
:101AA000FF1FE20FF11DEC5FFE4F3081E1E0F0E03F
:101AB000EC0FFD1FE40FF51F30839F5F983050F34C
:101AC000D9CFCF93C0E008C081E08C0F0E94A10065
:101AD0008C2F0E94C000CF5FC83058F46C2F8C2F21
:101AE0000E94110DC43080F38DE08C0F0E94A10084
:101AF000EFCFCF910895CF93DF93C82FD92F2097A1
:101B000041F0C130D10541F40E94610D8C2F9D2F11
:101B100005C081E090E002C080E090E0DF91CF91CD
:101B2000089500D000D000D0CDB7DEB711B88FEF48
:101B300082B990EF94B99FE095B987B918B88AB97E
:101B40001BB886E0E6E5F1E0DE01119601900D920A
:101B50008A95E1F7E7E7F1E0108282E390E0A0E008
:101B6000B0E081839283A383B48385839683A78324
:101B7000B0872CEF3BE032872187ECE6F1E0108262
:101B800081839283A383B48385839683A783B0875D
:101B90002BE73DE032872187E1E6F1E01082818387
:101BA0009283A383B48385839683A783B08784E6D7
:101BB0009CE0928781870F2EF2E38F2E912CA12C2F
:101BC000B12CF02D01E010E01AC0F801EE0FFF1F5C
:101BD00081E090E08C0F9D1FE80FF91F0190F081CC
:101BE000E02D2181328143815481C501B4010E94DD
:101BF0004202862E972EA82EB92E0F5F1F4F03305C
:101C0000110518F38FEF80939F010E94AB000E9493
:101C10007602C501B4010E94EB000E94FC0043C0A3
:101C2000F80185819681A781B085880D991DAA1D2F
:101C3000BB1D85839683A783B087FFEFEF1AFF0A4A
:101C400083E0E816F10448F5F701EE0FFF1FA1E06D
:101C5000B0E0AC0FBD1FEA0FFB1F00811181F8013E
:101C6000458156816781708581819281A381B4818C
:101C7000481759076A077B0799F60184F285E02D1A
:101C8000D8018C91082E000C990B0995F8018083DE
:101C90001582168217821086C3CF80916001882337
:101CA000E1F310926001F12CE12CCACFA1E21A2ECF
:101CB000AA1BBB1BFD010DC0AA1FBB1FEE1FFF1FF0
:101CC000A217B307E407F50720F0A21BB30BE40B40
:101CD000F50B661F771F881F991F1A9469F7609587
:101CE0007095809590959B01AC01BD01CF01089541
:041CF000F894FFCF96
:101CF400FF03FF031F1F1F1F10000001100000013E
:101D0400100000011000000110000001100000018B
:101D1400100000011000000110000001100000017B
:101D2400100000011000000110000001100000016B
:101D34001F1F1F1F000000020000000067000000BA
:0C1D440000000100000077016C0161014B
:00000001FF
